:02000004080AE8
:1000000000000A08AC2C0A080000060006000501E2
:080010000402350800000000A5
:04001800A4290A0805
:1000200009480A4908B5884205D0094A824202D0E7
:10003000121A02F075FC0748074A0021121A02F052
:100040007DFC064808BD00BF00000020142C0A08F3
:100050007000002070000020780600207806002044
:1000600070B501F0C1F80025054E064CA41BA4088C
:10007000A54200D170BD56F8043B98470135F7E71B
:10008000E82B0A08082C0A0800F06CB808B500F044
:1000900015FABDE8084001F069B800F055BE00F05F
:1000A0005BBE0078B0FA80F040097047012303700E
:1000B0007047000000000000F8B500F0ADFC184CDF
:1000C000184D206023682A689B1A174A136013682A
:1000D0000A2B1DD9154E306801F016FE0EA3D3E988
:1000E000002301F0B3FC02F05FF9114B30601F7880
:1000F000104E56F8270001F007FE07A3D3E90023AE
:1001000001F0A4FC02F050F946F8270023682B60A8
:10011000F8BD00BFAFF30080BA490C022B87863FC1
:10012000900100208C010020880100207C0000202C
:10013000900000209800002010B500F06DFC074CE6
:100140002368C01A0A2807D900F066FC044A206018
:1001500013780133DBB2137010BD00BF8C00002098
:100160009C01002073B501F03FF94FF4165101F0E6
:1001700021F901F039F9204900F073FE1F4C01F01C
:1001800033F903681B69984728B900F045FC2060E3
:1001900000F0CAFDF3E70025194800F08BFA184873
:1001A00000F0F1FA174C0721154800F0F9FA14484D
:1001B00000F00AFB144E2088022101F0B7FB002159
:1001C0000A2001F0B3FB3088022101F0AFFB4FF0B1
:1001D000FF3302220D493088009501F06DF900953A
:1001E0004FF0FF3302220A49208801F065F902B07E
:1001F000BDE8704001F08AB9B8290A084406002019
:10020000940100200400002000000020B9000A082A
:1002100039010A080000000037B501F0E5F83E4951
:1002200000F00CFE01F0E0F83C4B3D4C1968022256
:1002300000F0FEFE01F0D8F8214600F0FFFD01F0CD
:10024000D3F8384900F0FAFD01F0CEF8364B02221F
:10025000196800F0EDFE01F0C7F8344900F0EEFD3A
:1002600001F0C2F8324900F0E9FD01F0BDF8314B70
:100270000222196800F0DCFE01F0B6F8214600F019
:10028000DDFD01F0B1F82C4900F0D8FD01F0ACF82B
:100290002A4D04462A49286802F098FA02220146AB
:1002A000204600F0C5FE01F09FF8264900F0C6FD8B
:1002B00001F09AF822490446286802F087FA01F012
:1002C00023FD13A3D3E9002301F076FD02250246A6
:1002D0000B462046009500F0BAFE01F085F81A4959
:1002E00000F0ACFD01F080F8184900F0A7FD01F026
:1002F0007BF8174B2A46196800F09AFE01F074F853
:10030000144903B0BDE8304000F0ABBDAFF300804E
:10031000B0E600C11C3D9E3FE6290A089801002076
:10032000CF290A08D3290A0880000020DD290A08FD
:10033000E1290A0874000020EC290A089400002032
:100340000000C842F6290A08FC290A08032A0A08FC
:1003500078000020102A0A08F8B500F05DFB2E4C4A
:100360002E4E2368C01A02F025F90746307802F0B5
:1003700021F92B490546384602F028FA014628465D
:1003800002F024FA054601F02FF8264900F056FD48
:1003900001F02AF807460A22317800F06CFD384651
:1003A00000F053FD0023337000F036FB2060284638
:1003B00001F0AAFC16A3D3E9002301F0FDFC01F033
:1003C000F3FF054601F010F800F03FFD01F00CF8D6
:1003D000154900F033FD01F007F80222294600F02C
:1003E00049FE01F001F824680646002C0CDA2D21A4
:1003F00000F028FD61420A22304600F03CFD304604
:1004000000F023FD2846F8BD2146F4E7AFF3008055
:10041000AC1C5A643BDFF73F880000209C010020A1
:1004200000007A44162A0A08212A0A0870B508250D
:10043000002486B2304601F08AFA013D0444F9D125
:10044000E00870BD38B50A20FFF7F0FF044600F061
:10045000CBFF05460A22214600F00DFD284600F09C
:10046000F4FC204638BD000010B50E4C204600F0CC
:10047000A5F80D4B1860204600F0E2F80B4B186011
:10048000204600F077FA0A4B1860204600F0B8F9D1
:10049000084B1860FFF760FF074B1860BDE810407D
:1004A000FFF7D0BF940100208000002098010020B9
:1004B00074000020940000207800002010B5FFF7A1
:1004C000D3FF00F0A9FA074C2368C01A41F2883321
:1004D000984206D900F0A0FA2060BDE81040FFF76E
:1004E0009BBE10BD84000020014800F007B800BF8B
:1004F000940100200368C9B29B681847704708B58B
:1005000001F06CFA402101F0F1F801F067FAFC21EA
:10051000FFF7F0FF01F062FAC921FFF7EBFF01F0EE
:100520005DFA01F0EAF801F059FA0122402101F0E8
:10053000D6F801F053FA03685B699847C0B208BD6A
:1005400038B5E02914BF032502250C4601F046FA10
:10055000402101F0CBF801F041FA036821469B6885
:10056000984701F03BFA01F0C8F8642000F0A8FDBC
:1005700001F034FA2A46402101F0B1F8652401F077
:100580002DFA03681B699847A84206DA012000F09B
:1005900097FD013CF3D164200FE001F01FFA0368DE
:1005A0005B699847044601F019FA03685B6998474C
:1005B00000F0FC0040EA042080B238BD08B5F52107
:1005C000FFF7BEFF01F08EFB0022074B01F0F4FBAA
:1005D0000022064B01F0F0FB0022054B01F034FA3B
:1005E00001F0E2FE08BD00BF00405F400000F03EA9
:1005F000000018400000000008B5F321FFF7A0FF3D
:1006000001F070FB08A3D3E9002301F0D5FB002221
:10061000094B01F0D1FB06A3D3E9002301F014FA42
:1006200001F0C2FE08BD00BFD7A3703D0AF76540C8
:10063000CDCCCCCCCC6C47400000F03E000000009C
:1006400008B5FFF7D9FF01F05FFB07A3D3E900234B
:1006500001F0B2FB0022064B01F0F8F901F0A4FE14
:1006600008BD00BFAFF30080CDCCCCCCCCCCFC3FE0
:100670000000404010B50C4601F0B0F9602101F0D7
:1006800035F801F0ABF9036821469B68984701F003
:10069000A5F9002101F02DF801F0A0F90122602157
:1006A00001F01DF801F09AF903685B699847C0B240
:1006B00010BD000038B5054601F090F900F0E0FFEC
:1006C0000C212846FFF7D6FF04462846FFF717FF00
:1006D000152818D0322824D1C42C03D000F084FE71
:1006E000154902E000F080FE144900F0BAFB00F06A
:1006F0007BFE134911E000F077FE0F4908E000F09F
:1007000073FE104909E0C42CF5D100F06DFE0B49D1
:1007100000F0A7FB00F068FE0B49BDE8384000F090
:10072000A0BBC42CEBD100F05FFE044900F099FBA4
:1007300000F05AFE0549F0E7562A0A082C2A0A0852
:10074000492A0A088B2A0A083C2A0A086A2A0A083F
:1007500038B514460D4601F041F9602100F0C6FF9E
:1007600001F03CF9036829469B68984701F036F987
:10077000036821469B68984701F030F9BDE838408E
:10078000012100F0B6BF10B526210446FFF772FF25
:10079000262100F07F022046BDE81040FFF7D8BFB9
:1007A000072928BF072138B50D4626210446FFF743
:1007B00061FF00F0C70242EAC5022046BDE83840AA
:1007C0002621D2B2FFF7C4BF07221321FFF7C0BF13
:1007D00010B526210446FFF74DFF262100F0FD024B
:1007E0002046FFF7B5FF26212046FFF743FF40F0E4
:1007F000020226212046BDE81040D2B2FFF7A8BF72
:100800002DE9F04180460021FFF734FF00214046EA
:10081000FFF730FF01F0E2F8602100F067FF01F020
:10082000DDF80121FFF766FE01F0D8F8002100F0A5
:1008300060FF01F0D3F80322602100F050FF03288D
:100840002DD101F0CBF803685B699847044601F0AD
:10085000C5F8036824045B699847064601F0BEF8B2
:10086000036836025B699847C7B24046FFF7B0FF9E
:10087000C7F3011001F09EFE4FF07A5101F0F2FE35
:1008800004F47F04B6B234433C430546A00901F0AA
:1008900095FE0146284601F0DDFDBDE8F0810148E6
:1008A000FBE700BF00C079C4F8B50021064640F25E
:1008B0005924FFF7DFFE00213046FFF7DBFE8207F9
:1008C00007D4013C01D12948F8BD012000F0F8FB14
:1008D000F1E701F083F8602100F008FF01F07EF8F5
:1008E0000421FFF707FE01F079F8002100F001FF75
:1008F00001F074F80222602100F0F1FE0228E2D13A
:1009000001F06CF803685B699847C7B2054601F0CF
:1009100065F803685B699847C4B23046FFF758FF33
:100920002B0641BF04EB07246442C4F3072704F0FD
:10093000F0044FEA14104CBF0126002601F0D2F952
:1009400000220B4B01F038FA01F02EFD0546384627
:1009500001F034FE0146284601F07CFD002EB3D0A4
:100960000146002001F074FDAEE700BF00C079C46D
:100970000000B03F08B5FFF797FF01F0C5F900226E
:10098000064B01F019FA0022054B01F03FFB002253
:10099000044B01F05BF801F007FD08BD00002240A8
:1009A000000014400000404008B5024B1B685B6823
:1009B000019308BDB001060808B5024B1B689B688F
:1009C000019308BDB001060808B5024B1B689B697E
:1009D000019308BDB001060808B5024B1B68DB692E
:1009E000019308BDB001060808B5024B1B681B6ADD
:1009F000019308BDB001060808B5024B1B681B6BCC
:100A0000019308BDB001060808B5024B1B685B687E
:100A1000019308BD9C01060808B5024B1B685B6981
:100A2000019308BD9C01060808B5024B1B685B6C6E
:100A3000019308BDD001060808B5024B1B689B6CEA
:100A4000019308BDD001060808B5024B1B689B69DD
:100A5000019308BDC401060808B5024B1B685B6A18
:100A6000019308BDC401060808B5024B1B689B6AC8
:100A7000019308BDC401060808B5024B1B68DB6A78
:100A8000019308BDC401060808B5024B1B681B6B27
:100A9000019308BDC401060808B5024B1B685B6BD7
:100AA000019308BDC401060808B5024B1B689B6B87
:100AB000019308BDC401060808B5024B1B681B6CF6
:100AC000019308BDC401060808B5024B1B68DB6C26
:100AD000019308BDAC01060808B5024B1B689B6D6D
:100AE000019308BDAC01060808B5024B1B68DB6D1D
:100AF000019308BDAC01060808B5024B1B681B6ECC
:100B0000019308BDAC01060808B5024B1B685B6E7B
:100B1000019308BDAC01060808B5024B1B689B6E2B
:100B2000019308BDAC01060808B5024B1B68DB6EDB
:100B3000019308BDAC01060808B5024B1B681B6F8A
:100B4000019308BDAC01060808B5024B1B685B6F3A
:100B5000019308BDAC01060808B5034B1B68D3F828
:100B60008030019308BD0000AC01060808B5034BB6
:100B70001B68D3F89030019308BD0000AC01060853
:100B800008B5024B1B68DB69019308BDB401060878
:100B900008B5024B1B681B6A019308BDB401060827
:100BA00008B5024B1B681B68019308BDD8010608F5
:100BB00008B5024B1B685B68019308BDD8010608A5
:100BC00008B5024B1B681B69019308BDD8010608D4
:100BD00008B5024B1B685B69019308BDD801060884
:100BE00008B5024B1B689B69019308BDD801060834
:100BF00008B5024B1B68DB69019308BDD8010608E4
:100C000008B5024B1B681B6A019308BDD801060892
:100C100008B5024B1B689B6C019308BDC001060818
:100C200008B5024B1B685B68019308BDA401060868
:100C300008B5024B1B685B69019308BDA401060857
:100C400008B5034B1B68D3F89030019308BD000032
:100C5000A401060808B5034B1B68D3F89C30019328
:100C600008BD0000A401060808B5024B1B685B68BC
:100C7000019308BDC801060808B5024B1B689B68B4
:100C8000019308BDC801060808B5024B1B68DB6864
:100C9000019308BDC801060808B5024B1B681B6913
:100CA000019308BDC801060808B5024B1B685B69C3
:100CB000019308BDC801060808B5024B1B689B6973
:100CC000019308BDC801060808B5024B1B68DB6923
:100CD000019308BDC801060808B5024B1B681B6AD2
:100CE000019308BDC801060808B5024B1B681B6BC1
:100CF000019308BDC801060808B5024B1B685B6B71
:100D0000019308BDC801060808B5024B1B681B6C9F
:100D1000019308BDC801060808B5024B1B685B6C4F
:100D2000019308BDC801060808B5024B1B689B6803
:100D3000019308BDCC01060808B5024B1B68DB6BAC
:100D4000019308BDCC01060808B5024B1B681B685F
:100D5000019308BDA001060808B5024B1B685B683B
:100D6000019308BDA001060808B5024B1B685B6C27
:100D7000019308BDA001060870B5002604460D4683
:100D800040F8086FFFF750FE28462570FFF7F8FE81
:100D90002046666070BD10B50446006818B1FFF7C4
:100DA000DBFF0023236010BD10B50446FFF7F3FFFF
:100DB000204610BD0222002010B5084B084C1A60D6
:100DC000084B2060A080A071A360FFF729FF204698
:100DD000BDE81040044A054900F028BEAC010020DF
:100DE000A00100200000FFFF70000020A90D0A08EC
:100DF000F8B506460D4600248F18BD420CD0336866
:100E000030469B6815F8011B9847031E01DB1C4404
:100E1000F3E7002C08BF1C462046F8BD70B5054618
:100E20000C46084649B101F0B5FD2B680246214643
:100E30002846BDE87040DB68184770BD08B5FFF76D
:100E4000EDFF08BD03689B68184738B50D210546BE
:100E5000FFF7F8FF0A2104462846FFF7F3FF204476
:100E600038BD38B50546FFF7D9FF04462846FFF7D9
:100E7000ECFF204438BD0023012A98BF0A2230B578
:100E80008BB00C468DF8243009A92546B4FBF2F44A
:100E900004FB1253DBB2092B94BF30333733DBB280
:100EA000AA4201F8013DF0D9FFF7B8FF0BB030BD01
:100EB0002DE9F74F05461946104692461F469DF804
:100EC000306001F013FA40B150492846FFF7A6FF01
:100ED0000446204603B0BDE8F08F27F000444FF0F1
:100EE000FF32504621464A4B01F000FA48B94FF014
:100EF000FF3250462146464B01F0DAF908B9454920
:100F0000E3E74FF0604250463946434B01F0E4F9C5
:100F100008B14249D9E74FF0604250463946404B4C
:100F200001F0BCF90028F4D10022002350463946D4
:100F300001F0B4F9044630B12D212846FFF782FFB5
:100F4000044607F100474FF0000B00204FF0000867
:100F50003449DFF8D8905FFA8BF39E4206D94246B7
:100F60004B4601F053F80BF1010BF4E73B465246B8
:100F700000F06CFD8946804601F0F6F9074600F066
:100F8000A1FE02460B464046494600F05DFD0A229E
:100F90008046894628463946FFF76DFF044426B14E
:100FA00028462149FFF73AFF04444FF0000ADFF8D2
:100FB0007CB0013EF6B2FF2E8BD052465B464046D7
:100FC000494600F0F9FE8046894601F0A5F9071E62
:100FD00019DA2D212846FFF735FF034679420A2208
:100FE00028460193FFF747FF019B034438461C4402
:100FF00000F078FE02460B464046494600F024FDCC
:1010000080468946D5E739460023E8E79F2A0A0843
:10101000FFFFEF7FA32A0A08FFFFEF41A72A0A0874
:10102000FFFFEFC10000E03FAB2A0A0800002440A8
:1010300037B505461446084600F066FEE4B202469F
:101040000B4628460094FFF733FF03B030BD9DF8F0
:1010500000100091FFF72CBF37B59DF8181005461A
:101060000091FFF725FF04462846FFF7EEFE2044D7
:1010700003B030BD37B504460846154600F044FEBF
:10108000009502460B462046FFF7E6FF03B030BD51
:10109000002340681A461946FFF706BE014B024A74
:1010A0001A607047B0010020AD2A0A08024B1A6886
:1010B000024B1A60704700BF08000020B4010020F6
:1010C0000021FFF7B5BD10B58368044613B10322B4
:1010D00001469847204610BD10B50446FFF7F3FFC0
:1010E000204610BD00230348034A0449836000F0F2
:1010F0009DBC00BFB801002070000020D9100A0874
:10110000014B1860704700BF0C00002008B5134B5E
:1011100043B100F069F903681B699847002801DDB5
:10112000AFF300800E4B43B100F044FA03681B6933
:101130009847002801DDAFF300800A4B0BB1AFF3F5
:101140000080094B43B100F08DF903681B69984793
:10115000002801DDAFF3008008BD00BF00000000E3
:1011600000000000000000000000000008B5FFF7CC
:10117000CDFFFFF751FC014B186008BD440600206D
:101180000248034A0349121A01F0CABB0040024058
:1011900004400240102C0A08002307B51A466FF0DD
:1011A00077010093FFF756FD03B05DF804FB0000E4
:1011B00007B543880A2B08D0502B0BD1094B1B686D
:1011C0004BB103B05DF804EB1847FFF7E5FF03B040
:1011D0005DF804FB00231A466FF077010093FFF7D8
:1011E00039FDF4E7CC01002038B5124C002112483B
:1011F000FFF7BAFD114D2368AB420CBF012200225C
:101200000F4B1A7002D0FFF7BBFF2560FFF7FCFB06
:10121000044601F09BFB0B4B13B12046AFF300805B
:1012200000210848FFF788FDBDE838400021064846
:10123000FFF706BD0040024001110A081E1C279A54
:10124000C801002000000000B1110A08704710B565
:101250000446182100F0EFFB204610BDF8B50E46FD
:10126000002400F10807051D17F8011D0A22304669
:10127000FFF701FEAF42044401D12046F8BD002C27
:10128000F2D02E213046FFF7DDFD0444ECE70000EC
:1012900010B50446044B1122002140F8043B01F034
:1012A0004DFB204610BD00BFD82A0A080346074A56
:1012B00010B543F8042B01F1100251F8044B914290
:1012C00043F8044BF9D10A781A7010BDD82A0A08DD
:1012D000024AC0E90021042202757047D82A0A0890
:1012E00010B59DF8084044EA0324042344EA02446C
:1012F00044EA01644460037510BD000037B5044D35
:1013000005609DF818500095FFF7EAFF03B030BD67
:10131000D82A0A0841747047704708B50021007C3C
:10132000FFF75EFC40EAE07008BD08B50121007CD3
:10133000FFF756FC40EAE07008BD08B5007CFFF7F7
:1013400047FC20EAE07008BD08B5007CFFF738FCD8
:1013500020EAE07008BD38B50446007C0D46FFF772
:1013600037FC002801DC607C28B12946207CFFF78F
:101370003FFC20EAE07038BD007CFFF741BC10B5AF
:101380000446142100F057FB204610BD10B54FF461
:101390007A73044608460021C4E90113044B207403
:1013A0002360012311466374FFF7FAFB204610BD4A
:1013B000EC2A0A080022007CFFF7FABB10B50446AD
:1013C0001422002101F0BAFA054B20466360054B58
:1013D000E36040F2011323818123238210BD00BF0B
:1013E000000200200103002030B50F4D87B001A896
:1013F000FFF7E4FF2978BFF35B8F11F0010410D1F0
:101400002846FEF74EFE60B1214601AA0748FFF7C5
:10141000BDFF2846FEF74AFE054A0649034800F08C
:1014200005FB024807B030BDD0010020D8010020E4
:101430007000002019130A0810B504461422002178
:1014400001F07CFA054B20466360054BE36040F2F7
:10145000011323818123238210BD00BF820300205A
:101460008304002010B50F4C86B001A8FFF7E4FFFD
:101470002378BFF35B8FDB0710D42046FEF711FE05
:1014800060B1012101AA0848FFF780FF2046FEF75E
:101490000DFE064A0649044800F0C8FA024806B0A4
:1014A00010BD00BFD4010020EC010020700000201E
:1014B00019130A08004700002DE9FF4100241D46CA
:1014C0000F4690460646FFF787FA0423A5428DF89B
:1014D0000C30A8BF9DF82830ADF80D408DF80F40B6
:1014E000A4BF03AC8DF80E303A4643463046064959
:1014F0000094A8BF8DF80D50FFF766FAB0FA80F09F
:10150000400904B0BDE8F081B5140A08FFF76CBAD1
:1015100070474174704708B5007CFFF7CDFA20EAA8
:10152000E07008BD08B5007CFFF79EFA20EAE07085
:1015300008BD08B5007CFFF7A7FA40EAE07008BDD7
:1015400008B5007CFFF798FA40EAE07008BD007C1F
:10155000FFF7A2BA70B5467C04460D462EB1294667
:10156000207CBDE87040FFF777BA007CFFF7A4FA53
:101570000028F4DC304670BD10B50446142100F09C
:101580005AFA204610BD00004FF0000C10B504467A
:10159000084611464FF47A72C4E901C2044A207425
:1015A0002260012262741A46FFF74EFA204610BDEF
:1015B0001C2B0A0838B50D4D2978BFF35B8F11F04D
:1015C000010411D12846FEF76CFD68B12146084A96
:1015D000084B0948FFF7D8FF2846FEF767FD074A82
:1015E0000749054800F022FA034838BD04050020E9
:1015F000080500208C050020100600207000002047
:1016000011150A087047F8B5064615460C468F189E
:10161000BC4206D0336830469B6814F8011B9847DB
:10162000F6E72846F8BD0022007CFFF765BA0021E6
:10163000007CFFF769BA0021007CFFF76DBA00213A
:10164000007CFFF771BA0021007CFFF775BA10B576
:101650000446142100F0EFF9204610BD10B54FF4F8
:101660007A73044608460021C4E90113034B11466E
:1016700023602074FFF770FA204610BD4C2B0A0837
:101680000023007C1A461946FFF71EBA7FB50022D8
:101690001423CDE90122ADF804300B78007C8DF8DD
:1016A00008304B680393CB6804930B7A01A9059328
:1016B000FFF75CFA07B05DF804FB1FB5003B8DF83F
:1016C00000104FF0640118BF012303916946019295
:1016D0008DF80830FFF7DAFF05B05DF804FB012351
:1016E000FFF7EBBF0022007CFFF7F6B9C9B2FFF7A6
:1016F000F9BF0022007CFFF7F7B90121FFF7F9BF1E
:10170000002240681146FFF7C7BAF0B5154689B008
:1017100011220E460446002103A801F00FF92846C5
:1017200001F038F9002781B273682846009703AAB0
:10173000FFF76EFA30B139462046FFF7C9FD204663
:1017400009B0F0BD204603A9FFF7B0FDF7E700227E
:1017500040681146FFF7C0BA002240681146FFF703
:10176000CBBA00224068FFF7BFBA0022406881F080
:101770000101FFF7A9BA002340681A461946FFF78E
:101780009BBA002240681146FFF776BA0022022178
:101790004068FFF779BA002340681A46FFF764BA39
:1017A0000422024B5A60024A1A6070472406002045
:1017B000742B0A08002340681A46FFF755BA002226
:1017C00002214068FFF760BA002240681146FFF727
:1017D00053BA002240681146FFF75EBA0023406802
:1017E0001A461946FFF760BA002340681A461946A0
:1017F000FFF762BA00214068FFF786BA002140680F
:10180000FFF78ABA0022406881F00101FFF75CBA55
:1018100000224068FFF768BA002240681146FFF7CF
:101820006BBA002240681146FFF756BA70B51546EC
:101830008EB0044608A8FFF72BFD1122002103A853
:1018400001F07CF80026284601F0A4F80A4B009627
:1018500081B25B68284603AAFFF7DAF930B1314656
:101860002046FFF735FD20460EB070BD204603A987
:10187000FFF71CFDF7E700BF24060020024B034AD8
:101880001A6000225A6070472C060020B02B0A080C
:1018900010B50446806808B1FFF7CEF8204610BDA9
:1018A000172870B5044601D9002070BDA0F10D03C2
:1018B000022B0BD9012826D800F090F80021007CDB
:1018C000FFF742F980F00100C0B2EEE7134E317825
:1018D000BFF35B8F11F001050FD13046FEF7E1FB3E
:1018E00058B129460E48FFF747FA3046FEF7DEFBAF
:1018F0000C4A0D490A4800F099F8094B1878FFF78F
:1019000047F90028D0D1123C012C05D8FFF752FE30
:10191000007CFFF7C9F8D5E70120C6E734060020B0
:10192000380600207000002091180A08172838B5E2
:1019300004460D460AD8FF2908D0FFF7B1FF28B1A9
:1019400029462046BDE83840FFF736B838BD10B507
:10195000044609289CBF0A34A4B22046FFF7A0FF22
:1019600050B103212046FFF71FF8032804D1204679
:10197000BDE81040FFF740B8002010BD002313B5AC
:10198000074C1A46194620460093FFF7B7FC20463D
:10199000044A054902B0BDE8104000F047B800BF56
:1019A00048060020700000204D120A08002370B580
:1019B000202543801423084E044603803146856069
:1019C0000561284600F039F831466060284600F08D
:1019D00034F8E060204670BDE42B0A0830B50F4DA6
:1019E00087B02978BFF35B8F11F0010413D128462B
:1019F000FEF757FB78B101A8FFF7D8FF214601AAEF
:101A00000748FFF72BFE2846FEF750FB054A06491C
:101A1000034800F00BF8024807B030BD6006002014
:101A2000640600207000002005160A080B460146D7
:101A3000184600F067BFFEF732BBFEF72EBB000072
:101A400081F0004102E000BF83F0004330B54FEA6F
:101A500041044FEA430594EA050F08BF90EA020FDC
:101A60001FBF54EA000C55EA020C7FEA645C7FEA6F
:101A7000655C00F0E2804FEA5454D4EB5555B8BF92
:101A80006D420CDD2C4480EA020281EA030382EA03
:101A9000000083EA010180EA020281EA0303362D95
:101AA00088BF30BD11F0004F4FEA01314FF4801C68
:101AB0004CEA113102D0404261EB410113F0004F7A
:101AC0004FEA03334CEA133302D0524263EB430331
:101AD00094EA050F00F0A780A4F10104D5F1200ECF
:101AE0000DDB02FA0EFC22FA05F2801841F100012A
:101AF00003FA0EF2801843FA05F359410EE0A5F1FE
:101B000020050EF1200E012A03FA0EFC28BF4CF02E
:101B1000020C43FA05F3C01851EBE37101F00045E4
:101B200007D54FF0000EDCF1000C7EEB00006EEBF1
:101B30000101B1F5801F1BD3B1F5001F0CD349087B
:101B40005FEA30004FEA3C0C04F101044FEA4452D2
:101B500012F5800F80F09A80BCF1004F08BF5FEA59
:101B6000500C50F1000041EB045141EA050130BD39
:101B70005FEA4C0C404141EB0101013C28BFB1F54B
:101B8000801FE9D291F0000F04BF01460020B1FA96
:101B900081F308BF2033A3F10B03B3F120020CDA69
:101BA0000C3208DD02F1140CC2F10C0201FA0CF047
:101BB00021FA02F10CE002F11402D8BFC2F1200CAC
:101BC00001FA02F120FA0CFCDCBF41EA0C01904062
:101BD000E41AA2BF01EB0451294330BD6FEA0404AB
:101BE0001F3C1CDA0C340EDC04F11404C4F1200296
:101BF00020FA04F001FA02F340EA030021FA04F3A8
:101C000045EA030130BDC4F10C04C4F1200220FAFE
:101C100002F001FA04F340EA0300294630BD21FA3C
:101C200004F0294630BD94F0000F83F4801306BF02
:101C300081F480110134013D4EE77FEA645C18BFF6
:101C40007FEA655C29D094EA050F08BF90EA020F8D
:101C500005D054EA000C04BF1946104630BD91EA85
:101C6000030F1EBF0021002030BD5FEA545C05D188
:101C70004000494128BF41F0004130BD14F58004C7
:101C80003CBF01F5801130BD01F0004545F0FE413B
:101C900041F470014FF0000030BD7FEA645C1ABF70
:101CA000194610467FEA655C1CBF0B46024650EAA7
:101CB000013406BF52EA033591EA030F41F40021D3
:101CC00030BD00BF90F0000F04BF0021704730B559
:101CD0004FF4806404F132044FF000054FF000012E
:101CE00050E700BF90F0000F04BF0021704730B5EF
:101CF0004FF4806404F1320410F0004548BF4042C4
:101D00004FF000013EE700BF42004FEAE2014FEA18
:101D100031014FEA02701FBF12F07F4393F07F4FF3
:101D200081F06051704732F07F4208BF704793F0F6
:101D30007F4F04BF41F40021704730B54FF4607409
:101D400001F0004521F000411CE700BF50EA01020C
:101D500008BF704730B54FF000050AE050EA0102B5
:101D600008BF704730B511F0004502D5404261EB25
:101D700041014FF4806404F132045FEA915C3FF466
:101D8000D8AE4FF003025FEADC0C18BF03325FEA03
:101D9000DC0C18BF033202EBDC02C2F1200300FAB4
:101DA00003FC20FA02F001FA03FE40EA0E0021FAD9
:101DB00002F11444BDE600BF70B54FF0FF0C4CF4C7
:101DC000E06C1CEA11541DBF1CEA135594EA0C0F79
:101DD00095EA0C0F00F0DEF82C4481EA030621EAB4
:101DE0004C5123EA4C5350EA013518BF52EA0335EF
:101DF00041F4801143F4801338D0A0FB02CE4FF0A1
:101E00000005E1FB02E506F00042E0FB03E54FF0D0
:101E10000006E1FB03569CF0000F18BF4EF0010EC8
:101E2000A4F1FF04B6F5007F64F5407404D25FEAC4
:101E30004E0E6D4146EB060642EAC62141EA555177
:101E40004FEAC52040EA5E504FEACE2EB4F1FD0CB9
:101E500088BFBCF5E06F1ED8BEF1004F08BF5FEA37
:101E6000500E50F1000041EB045170BD06F00046E9
:101E700046EA010140EA020081EA0301B4EB5C0496
:101E8000C2BFD4EB0C0541EA045170BD41F480118E
:101E90004FF0000E013C00F3AB8014F1360FDEBFB3
:101EA000002001F0004170BDC4F10004203C35DA8F
:101EB0000C341BDC04F11404C4F1200500FA05F312
:101EC00020FA04F001FA05F240EA020001F00042B3
:101ED00021F0004110EBD37021FA04F642EB060129
:101EE0005EEA430E08BF20EAD37070BDC4F10C0453
:101EF000C4F1200500FA04F320FA05F001FA04F217
:101F000040EA020001F0004110EBD37041F1000102
:101F10005EEA430E08BF20EAD37070BDC4F120050D
:101F200000FA05F24EEA020E20FA04F301FA05F275
:101F300043EA020321FA04F001F0004121FA04F21D
:101F400020EA020000EBD3705EEA430E08BF20EAED
:101F5000D37070BD94F0000F0FD101F00046400027
:101F600041EB010111F4801F08BF013CF7D041EAA9
:101F7000060195F0000F18BF704703F000465200AD
:101F800043EB030313F4801F08BF013DF7D043EA7E
:101F90000603704794EA0C0F0CEA135518BF95EA34
:101FA0000C0F0CD050EA410618BF52EA4306D1D1BB
:101FB00081EA030101F000414FF0000070BD50EADA
:101FC000410606BF1046194652EA430619D094EA64
:101FD0000C0F02D150EA013613D195EA0C0F05D14E
:101FE00052EA03361CBF104619460AD181EA0301A2
:101FF00001F0004141F0FE4141F470014FF000005A
:1020000070BD41F0FE4141F4780170BD70B54FF0F4
:10201000FF0C4CF4E06C1CEA11541DBF1CEA135574
:1020200094EA0C0F95EA0C0F00F0A7F8A4EB050456
:1020300081EA030E52EA03354FEA013100F088804D
:102040004FEA03334FF0805545EA131343EA126316
:102050004FEA022245EA111545EA10654FEA0026CB
:102060000EF000419D4208BF964244F1FD0404F584
:10207000407402D25B084FEA3202B61A65EB0305E0
:102080005B084FEA32024FF480104FF4002CB6EB9D
:10209000020E75EB030E22BFB61A754640EA0C001D
:1020A0005B084FEA3202B6EB020E75EB030E22BF5D
:1020B000B61A754640EA5C005B084FEA3202B6EB9E
:1020C000020E75EB030E22BFB61A754640EA9C005D
:1020D0005B084FEA3202B6EB020E75EB030E22BF2D
:1020E000B61A754640EADC0055EA060E18D04FEAEB
:1020F000051545EA16754FEA06164FEAC30343EA8B
:1021000052734FEAC2025FEA1C1CC0D111F4801F57
:102110000BD141EA00014FF000004FF0004CB6E750
:1021200011F4801F04BF01430020B4F1FD0C88BFEF
:10213000BCF5E06F3FF6AFAEB5EB030C04BFB6EBFA
:10214000020C5FEA500C50F1000041EB045170BDED
:102150000EF0004E4EEA113114EB5C04C2BFD4EB1A
:102160000C0541EA045170BD41F480114FF0000E9E
:10217000013C90E645EA060E8DE60CEA135594EA1A
:102180000C0F08BF95EA0C0F3FF43BAF94EA0C0F1D
:102190000AD150EA01347FF434AF95EA0C0F7FF492
:1021A00025AF104619462CE795EA0C0F06D152EAE6
:1021B00003353FF4FDAE1046194622E750EA4106CA
:1021C00018BF52EA43067FF4C5AE50EA41047FF4DB
:1021D0000DAF52EA43057FF4EBAE12E74FF0FF3C40
:1021E00006E000BF4FF0010C02E000BF4FF0010C11
:1021F0004DF804CD4FEA410C7FEA6C5C4FEA430C8A
:1022000018BF7FEA6C5C1BD001B050EA410C0CBFD8
:1022100052EA430C91EA030F02BF90EA020F00203A
:10222000704710F1000F91EA030F58BF994208BFA1
:1022300090422CBFD8176FEAE37040F0010070475E
:102240004FEA410C7FEA6C5C02D150EA013C07D1B5
:102250004FEA430C7FEA6C5CD6D152EA033CD3D000
:102260005DF8040B704700BF8446104662468C46FA
:102270001946634600E000BF01B5FFF7B7FF00282D
:1022800048BF10F1000F01BD4DF808EDFFF7F4FF56
:102290000CBF012000205DF808FB00BF4DF808EDE1
:1022A000FFF7EAFF34BF012000205DF808FB00BF04
:1022B0004DF808EDFFF7E0FF94BF012000205DF826
:1022C00008FB00BF4DF808EDFFF7CEFF94BF0120DB
:1022D00000205DF808FB00BF4DF808EDFFF7C4FFD4
:1022E00034BF012000205DF808FB00BF4FEA410C1D
:1022F0007FEA6C5C02D150EA013C0AD14FEA430C00
:102300007FEA6C5C02D152EA033C02D14FF000003C
:1023100070474FF0010070474FEA410212F500127A
:1023200015D211D56FF47873B3EB625212D94FEA1C
:10233000C12343F0004343EA505311F0004F23FA06
:1023400002F018BF404270474FF00000704750EA5B
:10235000013005D111F0004008BF6FF00040704718
:102360004FF00000704700BF4A0011D212F5001272
:1023700011D20DD56FF47873B3EB62520ED44FEADD
:10238000C12343F0004343EA505323FA02F070475D
:102390004FF00000704750EA013002D14FF0FF309B
:1023A00070474FF0000070474FEA4102B2F1E0433E
:1023B00024BFB3F5001CDCF1FE5C0DD901F0004C2C
:1023C0004FEAC0024CEA5070B2F1004F40EB83007C
:1023D00008BF20F00100704711F0804F21D113F1A8
:1023E0003872BCBF01F00040704741F480114FEAE1
:1023F0005252C2F11802C2F1200C10FA0CF320FA6A
:1024000002F018BF40F001004FEAC1234FEAD32386
:1024100003FA0CFC40EA0C0023FA02F34FEA4303F0
:10242000CCE77FEA625307D150EA01331EBF4FF079
:10243000FE4040F44000704701F0004040F0FE4094
:1024400040F40000704700BF80F0004002E000BF91
:1024500081F0004142001FBF5FEA410392EA030F8F
:102460007FEA226C7FEA236C6AD04FEA1262D2EBD9
:102470001363C1BFD218414048404140B8BF5B42DE
:10248000192B88BF704710F0004F40F4000020F077
:102490007F4018BF404211F0004F41F4000121F08D
:1024A0007F4118BF494292EA030F3FD0A2F10102D7
:1024B00041FA03FC10EB0C00C3F1200301FA03F115
:1024C00000F0004302D5494260EB4000B0F5000F38
:1024D00013D3B0F1807F06D340084FEA310102F1F7
:1024E0000102FE2A51D2B1F1004F40EBC25008BFA9
:1024F00020F0010040EA03007047490040EB000073
:10250000013A28BFB0F5000FEDD2B0FA80FCACF173
:10251000080CB2EB0C0200FA0CF0AABF00EBC250A0
:1025200052421843BCBFD0401843704792F0000F8E
:1025300081F4000106BF80F400000132013BB5E7E1
:102540004FEA41037FEA226C18BF7FEA236C21D057
:1025500092EA030F04D092F0000F08BF08467047BC
:1025600090EA010F1CBF0020704712F07F4F04D18A
:10257000400028BF40F00040704712F100723CBF9D
:1025800000F50000704700F0004343F0FE4040F4C7
:10259000000070477FEA226216BF08467FEA236385
:1025A0000146420206BF5FEA412390EA010F40F470
:1025B000800070474FF0000304E000BF10F00043BC
:1025C00048BF40425FEA000C08BF704743F09643A3
:1025D00001464FF000001CE050EA010208BF7047BE
:1025E0004FF000030AE000BF50EA010208BF704745
:1025F00011F0004302D5404261EB41015FEA010C5A
:1026000002BF84460146002043F0B64308BFA3F151
:102610008053A3F50003BCFA8CF2083AA3EBC25333
:1026200010DB01FA02FC634400FA02FCC2F1200252
:10263000BCF1004F20FA02F243EB020008BF20F089
:102640000100704702F1200201FA02FCC2F12002EF
:1026500050EA4C0021FA02F243EB020008BF20EAE4
:10266000DC7070474FF0FF0C1CEAD0521EBF1CEA12
:10267000D15392EA0C0F93EA0C0F6FD01A4480EA00
:10268000010C400218BF5FEA41211ED04FF00063E9
:1026900043EA501043EA5111A0FB01310CF0004015
:1026A000B1F5000F3EBF490041EAD3715B0040EA3B
:1026B000010062F17F02FD2A1DD8B3F1004F40EB0B
:1026C000C25008BF20F00100704790F0000F0CF0DE
:1026D000004C08BF49024CEA502040EA51207F3AA2
:1026E000C2BFD2F1FF0340EAC250704740F400007D
:1026F0004FF00003013A5DDC12F1190FDCBF00F06E
:1027000000407047C2F10002410021FA02F1C2F11B
:10271000200200FA02FC5FEA310040F1000053EAB7
:102720004C0308BF20EADC70704792F0000F00F005
:10273000004C02BF400010F4000F013AF9D040EA0B
:102740000C0093F0000F01F0004C02BF490011F49F
:10275000000F013BF9D041EA0C018FE70CEAD1539D
:1027600092EA0C0F18BF93EA0C0F0AD030F0004C1D
:1027700018BF31F0004CD8D180EA010000F00040D1
:10278000704790F0000F17BF90F0004F084691F08F
:10279000000F91F0004F14D092EA0C0F01D14202C9
:1027A0000FD193EA0C0F03D14B0218BF084608D192
:1027B00080EA010000F0004040F0FE4040F40000DC
:1027C000704740F0FE4040F4400070474FF0FF0C6F
:1027D0001CEAD0521EBF1CEAD15392EA0C0F93EAB6
:1027E0000C0F69D0A2EB030280EA010C49024FEA08
:1027F000402037D04FF0805343EA111143EA1013C1
:102800000CF000408B4238BF5B0042F17D024FF478
:10281000000C8B4224BF5B1A40EA0C00B3EB510F53
:1028200024BFA3EB510340EA5C00B3EB910F24BF3C
:10283000A3EB910340EA9C00B3EBD10F24BFA3EBC1
:10284000D10340EADC001B0118BF5FEA1C1CE0D189
:10285000FD2A3FF650AF8B4240EBC25008BF20F03C
:10286000010070470CF0004C4CEA50207F32C2BF90
:10287000D2F1FF0340EAC250704740F400004FF02D
:102880000003013A37E792F0000F00F0004C02BF5E
:10289000400010F4000F013AF9D040EA0C0093F028
:1028A000000F01F0004C02BF490011F4000F013B82
:1028B000F9D041EA0C0195E70CEAD15392EA0C0FEA
:1028C00008D142027FF47DAF93EA0C0F7FF470AF22
:1028D000084676E793EA0C0F04D14B023FF44CAF65
:1028E00008466EE730F0004C18BF31F0004CCAD1FA
:1028F00030F000427FF45CAF31F000437FF43CAF36
:102900005FE700BF10B504460448134620B10A46ED
:1029100002202146AFF3008010BD00BF0000000080
:102920000A44914200F1FF3300D1704710B511F80D
:10293000014B914203F8014FF9D110BD0346024407
:10294000934200D1704703F8011BF9E738B50D4BEE
:1029500004461D68AB6B7BB91820FEF7F5F90A4AEF
:102960000A4BA863C0E90023094B012283600B23B3
:1029700083810023C0E904230022AB6B1C615A61F0
:1029800038BD00BF0C0000200E33CDAB34126DE615
:10299000ECDE0500034613F8012B002AFBD1181AC0
:1029A0000138704721000A0861000A0889000A08F6
:1029B0008D000A0800000000507265737320616E7C
:1029C00079206B657920746F20626567696E0046B7
:1029D0002C200048756D69646974793A00252C20B3
:1029E000004261726F5F54656D703A00507265739A
:1029F000737572653A006850612C2000696E2E482C
:102A000067200057696E642053706565643A200042
:102A10006D70682C200057696E64636C69636B3A53
:102A20000057696E6473706565643A004D504C33AD
:102A3000313135413220466F756E6400536937304D
:102A4000323120466F756E6400485455323144204F
:102A5000466F756E64004D504C3331313541322034
:102A60004E4F5420466F756E64004E6F2054656D56
:102A7000702F48756D69646974792044657669635F
:102A800065204465746563746564004E6F20446519
:102A90007669636573204465746563746564006E6C
:102AA000616E00696E66006F7666002E0061707060
:102AB0000025592D256D2D25645425483A254D3A7C
:102AC0002553257A0061736374696D650000000009
:102AD00000000000000000005D120A084D120A0804
:102AE0004F120A08000000000000000019130A0835
:102AF0007F130A0857130A08F10D0A0849130A0838
:102B00001B130A082B130A0879130A083B130A0837
:102B100015130A08000000000000000011150A0843
:102B200079150A0855150A08F10D0A0825150A082D
:102B300041150A0833150A084F150A0813150A0823
:102B400017150A08000000000000000005160A081A
:102B50004F160A0827160A0807160A082F160A0829
:102B600037160A083F160A0847160A080000000030
:102B70000000000097170A088D170A0883170A0833
:102B800001170A0891100A0877170A08F5170A08AA
:102B9000FD170A086B170A0863170A0859170A086D
:102BA0004F170A080B170A08000000000000000079
:102BB000B5170A08BF170A08C9170A08D3170A0861
:102BC000DD170A08E9170A08F5170A08FD170A08A9
:102BD00005180A0811180A0819180A0823180A08FB
:102BE0002D180A0800000000E9040A08B50D0A08BB
:102BF0009D100A08AD100A08E5100A08A1170A0876
:102C00007D180A087D190A08000000000000000075
:042C100000000000C0
:102C14000200000003000000C52A0A08100000207A
:102C240000000000000000000000000000000000A0
:102C34000000000000000000000000000000000090
:102C44000000000000000000000000000000000080
:102C54000000000000000000000000000000000070
:102C64000000000000000000000000000000000060
:102C74000000000000000000000000000000000050
:102C8400FFFFFFFF00000102030405060708090A0D
:102C94000B0C0D0E0F101112131415161718191A08
:082CA4001B1C1D1E1F2028004F
:042CAC007856341210
:04000005080A0020C5
:00000001FF
